:020000021000EC
:10FC000001C0E2C01F92CDB7DEB7112484B78823AC
:10FC100049F0982F9A70923029F081FF02C097EF37
:10FC200094BF0AD182E08093C00088E18093C10034
:10FC300086E08093C20080E18093C4008EE0E7D02C
:10FC4000812C912CD8D0813479F4D5D08983E5D01A
:10FC50008981823811F482E005C0813811F486E090
:10FC600001C083E0C1D0ADC0823411F484E103C08F
:10FC7000853419F485E0D9D0A4C0853581F4BBD092
:10FC8000182FB9D0812E912C982A8BB797FE02C0DD
:10FC9000816001C08E7F8BBF880C991C91C0863516
:10FCA00081F4A9D08D3449F4A6D01BB7A4D0880F15
:10FCB0001170812B8BBF81E001C083E0B6D080E062
:10FCC000D1CF843609F04BC096D0082F10E0102F0A
:10FCD000002791D0082B8FD0B82E7801C12C22E0BC
:10FCE000D22E89D0F60181936F01F1E0EF1AF1086D
:10FCF000C1F793D085E4B81213C06801EEEFDE1AA5
:10FD0000740100E012E00C151D0509F45AC0F80159
:10FD100061918F01C7019ED0FFEFEF1AFF0AF3CF69
:10FD200040E050E063E0C4014FD0E12CF12CF7013A
:10FD3000FE5F40813196808150E0582B61E0C70121
:10FD4000880D991D41D082E0E80EF11C0E151F05AB
:10FD500071F740E050E065E0C40136D032C084372E
:10FD600011F549D0082F10E0102F002744D0082BA0
:10FD700042D0898352D089817401853461F4C701EE
:10FD800061D032D001501109EFEFEE1AFE0A0115D1
:10FD90001105A9F716C0F70187917F0125D0015001
:10FDA0001109C9F70EC0853739F437D08EE11CD060
:10FDB00087E91AD084E056CF813511F488E027D046
:10FDC0002CD080E111D03ECFFC010A0167BFE8953D
:10FDD000112407B600FCFDCF667029F0452B19F4FD
:10FDE00081E187BFE89508959091C00095FFFCCF11
:10FDF0008093C60008958091C00087FFFCCF80915A
:10FE0000C00084FD01C0A8958091C6000895E0E679
:10FE1000F0E098E1908380830895EDDF803219F05F
:10FE200088E0F5DFFFCF84E1DFCFCF93C82FE3DF9A
:10FE3000C150E9F7CF91F1CF282E80E0E8DFE0E074
:10FE4000FF270994F999FECF92BD81BDF89A9927B1
:10FE500080B50895262FF999FECF1FBA92BD81BDB6
:10FE600020BD0FB6F894FA9AF99A0FBE019608953C
:02FFFE000206F9
:040000031000FC00ED
:00000001FF
