:10FC000001C0CEC01F92CDB7DEB7112484B78823C0
:10FC100049F0982F9A70923029F081FF02C097EF37
:10FC200094BFF6D082E08093C00088E18093C10049
:10FC300086E08093C20080E18093C4008EE0D3D040
:10FC4000812C912CC4D0813479F4C1D08983D1D056
:10FC50008981823811F482E005C0813811F486E090
:10FC600001C083E0ADD099C0823411F484E103C0B7
:10FC7000853419F485E0C5D090C0853549F4A7D006
:10FC8000182FA5D0812E912C982A880C991C84C0FD
:10FC9000863521F484E0B5D080E0E4CF843609F0E5
:10FCA0004AC095D0082F10E0102F002790D0082BC5
:10FCB0008ED0B82E7801C12CDD24D39488D0F601E3
:10FCC00081936F01F1E0EF1AF108C1F792D085E45A
:10FCD000B81212C06801D394740100E011E00C1551
:10FCE0001D0509F45AC0F80161918F01C7019ED02A
:10FCF000FFEFEF1AFF0AF3CF40E050E063E0C401EA
:10FD00004FD0E12CF12CF701F395408131968081A1
:10FD100050E0582B61E0C701880D991D41D082E069
:10FD2000E80EF11C0E151F0571F740E050E065E08C
:10FD3000C40136D032C0843711F549D0082F10E005
:10FD4000102F002744D0082B42D0898352D08981BC
:10FD50007401853461F4C70161D032D001501109BA
:10FD6000EFEFEE1AFE0A01151105A9F716C0F7010B
:10FD700085917F0125D001501109C9F70EC0853743
:10FD800039F437D08EE11CD086E91AD08AE06ACFE8
:10FD9000813511F488E027D02CD080E111D052CFEA
:10FDA000FC010A0167BFE895112407B600FCFDCFEE
:10FDB000667029F0452B19F481E187BFE895089515
:10FDC0009091C00095FFFCCF8093C600089580916C
:10FDD000C00087FFFCCF8091C00084FD01C0A895C2
:10FDE0008091C6000895E0E6F0E098E1908380837A
:10FDF0000895EDDF803219F088E0F5DFFFCF84E170
:10FE0000DFCFCF93C82FE3DFC150E9F7CF91F1CF18
:10FE1000282E80E0E8DFE0E0FF270994F999FECF83
:10FE200092BD81BDF89A992780B50895262FF9993A
:10FE3000FECF1FBA92BD81BD20BD0FB6F894FA9ACD
:08FE4000F99A0FBE0196089526
:02FFFE000206F9
:040000030000FC00FD
:00000001FF
