:020000021000EC
:10FC000001C0E1C01F92CDB7DEB711248FEF90E1A4
:10FC10009EBF8DBF84B7882349F0982F9A70923089
:10FC200029F081FF02C097EF94BFFED082E08BB92C
:10FC300088E18AB986E08093950080E189B98EE0F9
:10FC4000E0D0812C912CD6D0813471F4D3D089832B
:10FC5000DCD08981823809F4ACC0813811F486E0A7
:10FC600001C083E0C3D0ACC0823411F484E103C08E
:10FC7000853419F485E0D1D0A3C0853581F4BAD09C
:10FC8000182FB8D0812E912C982A8BB797FE02C0DE
:10FC9000816001C08E7F8BBF880C991C90C0863517
:10FCA00081F4A8D08D3449F4A5D01BB7A3D0880F18
:10FCB0001170812B8BBF81E001C083E0AED080E06A
:10FCC000D1CF843609F04AC095D0082F10E0102F0C
:10FCD000002790D0082B8ED0B82E7801C12CDD24BF
:10FCE000D39488D0F60181936F01F1E0EF1AF10807
:10FCF000C1F78BD085E4B81212C06801D3947401A7
:10FD000000E011E00C151D0509F45AC0F8016191DD
:10FD10008F01C70197D0FFEFEF1AFF0AF3CF40E042
:10FD200050E063E0C4014FD0E12CF12CF701F395D2
:10FD300040813196808150E0582B61E0C701880DE9
:10FD4000991D41D082E0E80EF11C0E151F0571F7D8
:10FD500040E050E065E0C40136D032C0843711F590
:10FD600049D0082F10E0102F002744D0082B42D094
:10FD700089834BD089817401853461F4C7015AD0DD
:10FD800035D001501109EFEFEE1AFE0A01151105E9
:10FD9000A9F716C0F70187917F0128D001501109FA
:10FDA000C9F70EC0853739F430D08EE11FD087E90E
:10FDB0001DD082E057CF813511F488E022D025D0C4
:10FDC00080E114D040CFFC010A0160936800E895FF
:10FDD00011248091680080FDFCCF667031F0452BC6
:10FDE00021F481E180936800E89508955D9BFECF42
:10FDF0008CB908955F9BFECF5C9901C0A8958CB12A
:10FE0000089598E191BD81BD0895F4DF803219F025
:10FE100088E0F7DFFFCF84E1E9CFCF93C82FEADF97
:10FE2000C150E9F7CF91F1CF282E80E0EADFE0E082
:10FE3000FF270994E199FECF9FBB8EBBE09A9927DB
:10FE40008DB30895262FE199FECF9FBB8EBB2DBBAE
:0EFE50000FB6F894E29AE19A0FBE019608955B
:02FFFE000206F9
:040000031000FC00ED
:00000001FF
